:020000040800F2
:1000000040070020AD010008271400082314000851
:1000100025140008BD020008311800080000000087
:100020000000000000000000000000004B14000869
:10003000A105000800000000491400084D14000844
:10004000C7010008C7010008C7010008C701000870
:10005000C7010008C7010008C7010008C701000860
:10006000C7010008C7010008C7010008C701000850
:10007000C7010008C7010008C7010008C701000840
:10008000C7010008C7010008C70100080000000000
:10009000000000000000000000000000C701000890
:1000A000C70100084D150008C7010008C701000876
:1000B000C7010008C7010008C7010008C701000800
:1000C000C7010008C7010008C7010008C7010008F0
:1000D000C7010008C7010008C701000800000000B0
:1000E000C7010008C7010008C701000800000000A0
:1000F000000000000000000000000000C701000830
:1001000000000000C7010008C7010008C70100087F
:1001100000000000000000000000000000000000DF
:10012000C7010008C7010008C1020008C701000894
:10013000C7010008000000000000000000000000EF
:10014000000000000000000000000000C7010008DF
:10015000C7010008C7010008C7010008C70100085F
:10016000C7010008C70100080000000000000000EF
:10017000000000000000000000000000000000007F
:1001800000000000C701000800000000000000009F
:10019000C7010008C7010008DFF80CD000F07CF8A8
:1001A000004800470B1A0008400700200648804717
:1001B00006480047FEE7FEE7FEE7FEE7FEE7FEE74C
:1001C000FEE7FEE7FEE7FEE7F914000899010008E4
:1001D0002DE9F05F0546002092469B46884606467C
:1001E000814640241BE0284641464746224600F00F
:1001F00042F853465A46C01A914110D31146184648
:10020000224600F029F82D1A67EB01084F462246D6
:100210000120002100F020F817EB00094E41201EBC
:10022000A4F10104DFDC484631462A464346BDE8D6
:10023000F09F00000649074A0868504343F239021C
:10024000104408604008704701490860704700008A
:10025000280000206D4EC641202A04DB203A00FA17
:1002600002F1002070479140C2F1200320FA03F30D
:10027000194390407047202A04DB203A21FA02F00B
:100280000021704721FA02F3D040C2F120029140D0
:100290000843194670470000064C074D06E0E06829
:1002A00040F0010394E8070098471034AC42F6D3BD
:1002B000FFF776FFC01D0008E01D0008FEE7000004
:1002C000014800F099B90000EC0100202DE9F84F39
:1002D00042480024016841F4800101600068402523
:1002E00000F4800000903E48AE0000F11001C0E92B
:1002F00002544FF4805A4FF4804BC66181E8100CD1
:100300004FF44037C0E908744FF00309C0E90A947C
:100310004FF0406833490463C0E9001800F041F928
:100320002F4800F039FA30232F4A30492C4800F08A
:100330009DFA2B48290160308560C0E903414900DE
:100340004161C0E90874C0E90A9489000463C0E906
:10035000061624496039C0E9001800F022F9204847
:10036000603000F019FA1E491F4AD4393023921C1C
:1003700001F59A7000F07AFA1948C03000F11001C6
:10038000C0E90254C66181E8100CC0E90874C0E9F4
:100390000A94144904634839C0E900181449C16338
:1003A000144901641449C16400F0FBF80C48C030E2
:1003B00000F0F2F9002211463A2000F0FBFB3A204F
:1003C00000F0ECFB01B00949BDE8F04F04483023D0
:1003D000091D054AC03000F06CBA000030380240F8
:1003E0002C01002088640240180802400000002010
:1003F000A1040008690500086105000801681823C8
:10040000CAB2103AB2FBF3F2054B6FF30901032AAB
:100410009B5CC36500D9091D8165084670470000D3
:10042000A81D000810B5014600208B698A6A4FF0AC
:10043000C07453B1B3F5005F15D072B1012A0CD06E
:10044000022A0AD0032A09D104E01AB1012A06D0EF
:10045000022A03D1C96AC90100D5012010BDC96AA9
:10046000A142FAD010BD002AF7D0012AF2D0022A08
:10047000F3D0032AF3D010BD30B50468256825F405
:1004800080252560046863608368402B036803D07F
:1004900099600068C26030BD9A600068C16030BD7C
:1004A00070B52A4CA06A10280CD0002504EB05106A
:1004B000012101F093FA6D1C022DF7D3A06A401CB4
:1004C000A06270BD22480022A262016821F00101F1
:1004D0000160204909680B6823F001030B601D4986
:1004E000603109680B6823F001030B601949C031C2
:1004F00009680B6823F001030B60164974390B6817
:10050000DC6824F48074DC600B68DC6824F400741C
:10051000DC600B68DC6824F48064DC600E4BDB6814
:10052000C3624262012242610B68D21E1A610968ED
:10053000CA6842F00102CA60016841F0010101602D
:1005400005480649001D0068086070BD2C000020A9
:10055000000001402C01002000000020180802408B
:1005600008B50120009008BD38B50C4DA86A1028C8
:100570000CD0002405EB0410002101F02FFA641CBC
:10058000022CF7D3A86A401CA86238BD002003469D
:1005900002460146009001F02BFB38BD2C000020E4
:1005A000704770B5040025D094F83500022820D09B
:1005B0002068016821F001010160206800250560C4
:1005C00020684560206885602068C56020680561F6
:1005D0002168212048612046FFF710FF94F85C2035
:1005E0003F2191408160656584F8355084F834502E
:1005F000002070BD012070BD2DE9F84304464FF086
:100600000009CDF8009063484FF41651A56D0068BD
:10061000B0FBF1F72E6894F85C10082000FA01F1A5
:1006200031420FD021680A6852070BD50A6822F0C0
:1006300004020A6094F85C108840A860606D40F085
:100640000100606594F85C104FF0010808FA01F0B1
:10065000304208D021684969090604D5A860606D58
:1006600040F00200606594F85C100420884030423D
:1006700008D021680968890704D5A860606D40F03A
:100680000400606594F85C1010208840304218D057
:1006900021680968090714D5A86020680168490322
:1006A00004D50068000308D5A16C07E00168C905FE
:1006B00003D4016821F008010160216C09B12046D2
:1006C000884794F85C1020208840304231D021685F
:1006D0000968C9062DD5A86094F83500052820685A
:1006E000016806D0490347D5006800031DD4616C3A
:1006F0001CE021F0160101602068416921F08001B1
:100700004161206C08B9A06C20B12068016821F01B
:100710000801016094F85C103F208840A86084F8CC
:10072000349084F83580216D1FE0E16B09B12046DB
:100730008847606D00282BD0606DC00714D005205D
:1007400084F835002068016821F0010101600098FB
:10075000401C0090B84203D820680068C007F6D15A
:1007600084F8349084F83580E16C002910D001B011
:100770002046BDE8F04308470168C905D5D40168A3
:1007800021F01001016084F8349084F83580CCE7C2
:10079000BDE8F883240000202DE9F041044600F074
:1007A00089F906465CB1002584F83450022084F8AB
:1007B00035002068016821F0010101600DE0012091
:1007C000BDE8F08100F076F9801B052805D92020CE
:1007D0006065032084F83500F2E720680068C007F0
:1007E000F0D12268116820480140D4E90103184380
:1007F000D4E903363343184363691843A3691843A4
:10080000E3691843236A18430843616A042903D142
:10081000D4E90B1319430843106020684069666AE5
:1008200020F0070130460E43012704280CD1A06AAE
:100830000643E06A40B12046FFF7F4FD20B14020B6
:10084000606584F83570BAE7206846612046FFF796
:10085000D5FD94F85C203F2191408160656584F866
:1008600035700020ACE700003F8010F070B5044602
:1008700090F83400002501280CD0012084F83400C1
:1008800094F835600020012E06D084F8340002254B
:10089000284670BD022070BD022684F83560606570
:1008A0002046FFF7E9FD2068016841F00101016081
:1008B000EEE72DE9F0410446866D90F834000025FE
:1008C00001280DD0012084F8340094F83570002000
:1008D000012F07D084F8340002252846BDE8F081B6
:1008E0000220FBE7022784F8357060652046FFF799
:1008F000C3FD94F85C103F208840B0602068016818
:1009000041F0160101602068416941F080014161B8
:10091000206C20B12068016841F008010160206866
:10092000016841F001010160D7E700002DE9F84FAF
:10093000DFF860B100224FF001084FF0030A4FF0DA
:100940000F090BF1040E00BF0B6808FA02F42340F4
:10095000A3426ED14D68022D01D0122D0ED1D508C3
:1009600000EB850CDCF820505607F70E09FA07F665
:10097000B5430E69BE402E43CCF820600668550092
:100980000F790AFA05FC07F0030726EA0C06AF40C8
:10099000374307604E68012E05D0022E03D0112E7A
:1009A00001D0122E0ED18668CF6826EA0C06AF4021
:1009B000374387604668A6430C79C4F3001494401B
:1009C00034434460C6688C6826EA0C06AC40344365
:1009D000C4604C68E40056D52F4C256845F480452A
:1009E0002560246822F0030504F4804400942B4C15
:1009F0002E19D6F8084895072F0F09FA07F5AC43CA
:100A0000274DA84201D1002515E0264DA84201D16D
:100A1000012510E0244DA84201D102250BE0234D11
:100A2000A84201D1032506E0214DA84202D10425A8
:100A300001E028E00725BD402543C6F80858DBF84B
:100A400000405D464E689C43F60300D51C432C6075
:100A5000DEF8004075464E689C43B60300D51C4343
:100A60002C600C4D08352C684E689C43F60200D56E
:100A70001C432C60074D0C352C684E689C43B60215
:100A800000D51C432C60521C102AFFF45DAFBDE85A
:100A9000F88F0000003C0140443802400030014023
:100AA000000002400004024000080240000C024026
:100AB00000100240014880687047000018000020C4
:100AC0000248816802781144816070471800002054
:100AD0000B4810B5016841F400710160016841F4F0
:100AE00080610160016841F480710160032000F0C1
:100AF00081F8002000F006F800F024F8002010BD76
:100B0000003C024070B50D4D04464FF47A712878D0
:100B1000B1FBF0F00A490968B1FBF0F000F0E7FA28
:100B200048B9102C07D200222146501E00F042F88E
:100B300000206C6070BD012070BD00001800002016
:100B40002400002010B5032000F054F800221146C4
:100B50006FF00B0000F02EF8002211466FF00A0033
:100B600000F028F8002211466FF0090000F022F88A
:100B700000221146501F00F01DF800221146101FE0
:100B800000F018F800221146901E00F013F8002221
:100B9000BDE810401146501E00F00CB800F01F02D6
:100BA000012191404009800000F1E020C0F80011CF
:100BB00070470000F0B40E4B1B680C46C3F30223D1
:100BC000C3F10705042D00D90425191D072901D2F9
:100BD000002300E0DB1E012606FA05F1491E214034
:100BE00099409E40761E16403143F0BC00F01CBC7C
:100BF0000CED00E0064900F0070208684FF6FF031D
:100C0000184040EA0220034A104308607047000081
:100C10000CED00E00000FA052DE9F0470E46050056
:100C200065D0DFF81481D8F80000F7B200F00F00AB
:100C3000B04207D288F80070D8F8000000F00F002A
:100C4000B04254D128683D4C810712D5400703D5E6
:100C5000206840F4E05020602878000703D5206821
:100C600040F4604020602068A96820F0F00008434C
:100C700020602878C0072DD03049686808390128DD
:100C800012D0022813D0032811D00968890700293F
:100C90002DDA216821F0030101432160FFF70AFFEB
:100CA000814641F2883A0EE009688903EFE7096856
:100CB0008901ECE7FFF7FEFEA0EB0901514502D9DF
:100CC0000320BDE8F0872068696800F00C00B0EBF5
:100CD000810FEFD1D8F80010404601F00F01B1426A
:100CE00007D90770006800F00F00B04201D0012062
:100CF000E7E72878400705D52068E96820F4E05048
:100D0000084320602878000706D52068296920F468
:100D1000604040EAC100206000F01CF82168084AE9
:100D2000C1F30311515CC840064908600020FFF779
:100D3000E9FE0020C5E70000003C02400838024000
:100D4000B01D000824000020014800687047000022
:100D500024000020154810B5006810F00C0214485B
:100D600013D01449042A0FD0082A0ED10F4C241F87
:100D70002268236802F03F025B0207D52068C0F3B7
:100D80008810A0FB010106E0084610BD2168C1F3F0
:100D90008811A1FB00010023FFF71AFA2168C1F3B3
:100DA0000141491C4900B0FBF1F010BD0838024078
:100DB0000024F40040787D012DE9F84F050076D03D
:100DC0002878DFF8F8B2BE4CC00749D0DBF8001035
:100DD0005846C1F38101012908D00068C0F38100A1
:100DE00002280AD1201D0068400206D52068800331
:100DF00036D568680028E2D032E06868B0F5803FF8
:100E000010D0B0F5A02F206810D020F480302060E2
:100E1000206820F4802020606868A0B1FFF74AFEB7
:100E200006460CE0206840F48030F4E740F480206F
:100E30002060F7E7FFF73EFE801B642873D8206828
:100E40008003F7D50CE0FFF735FE064605E000BF4E
:100E5000FFF730FE801B6428F0D820688003F7D4A9
:100E60002878DFF8608280074FF000093ED5DBF874
:100E70000010584611F00C0F09D00068C0F3810033
:100E800002280BD18D48001F0068400206D420685C
:100E9000800715D5E868012809D111E0E868B8B1E4
:100EA0000120C8F80000FFF705FE064605E002E154
:100EB000FFF700FE801B0228C0D820688007F7D506
:100EC0002068296920F0F80040EAC10020600DE0A8
:100ED000C8F80090FFF7EEFD064604E0FFF7EAFDD4
:100EE000801B02281FD820688007F7D428780007C5
:100EF00022D5724E744869696C3671B10121016066
:100F0000FFF7D8FD074604E0FFF7D4FDC01B022819
:100F100009D830688007F7D50EE0C0F80090FFF7D9
:100F2000C9FD074605E083E0FFF7C4FDC01B0228AA
:100F30007ED830688007F7D42878400768D5DFF876
:100F40007CA100270AF1380ADAF80000C0000BD4AF
:100F5000DAF8001041F08051CAF80010DAF8000009
:100F6000012700F080500090584E3068C00510D422
:100F7000306840F480703060FFF79CFD009005E021
:100F8000FFF798FD0099401A022851D83068C00533
:100F9000F6D54A4EA868683601280FD00528306873
:100FA00010D020F001003060306820F00400306084
:100FB000A868B8B1FFF77EFD00900FE0306840F000
:100FC0000100F4E740F004003060F7E7FFF772FD3E
:100FD0000099411A41F28830814264D83068800714
:100FE000F4D50EE0FFF766FD009007E0FFF762FD25
:100FF0000099411A41F28830814254D83068800704
:10100000F4D42FB1DAF8001021F08051CAF80010A2
:10101000A869C0B3DBF80010C1F3810102294AD0EE
:101020000228484607D0C8F86000FFF743FD00E0FB
:1010300039E005463AE04746C8F86000FFF73AFD58
:10104000064604E0FFF736FD801B02282BD82068F7
:101050008001F7D4D5E907010843A96A1C4A490869
:1010600002EB01416A6A41EA8211084395F82C10AB
:1010700040EA01611148001F016001203866FFF756
:1010800019FD054605E014E0FFF714FD401B02289A
:1010900009D820688001F7D50BE000BFFFF70AFDF3
:1010A000401B022802D90320BDE8F88F2068800188
:1010B000F4D40020F8E70120F6E7000008380240E9
:1010C0000038024000004742800E47420070004056
:1010D0000000FFFF4FF0E0210428086903D020F052
:1010E00004000861704740F00400FAE7704710B54B
:1010F000401EB0F1807F01D3012010BD4FF0E024ED
:1011000060610F21601700F08FF90020A0610720B7
:101110002061002010BD10B5FFF7E8FF10BD70473B
:101120007047022180F8391001680A6842F0010214
:101130000A60012180F8391000207047704770B5AF
:101140000446006801694FF00005C943890715D4BA
:10115000C168C943890711D4E91E016101202076C5
:10116000206880698007204602D0FFF7E7FF04E08F
:1011700000F098F8204600F01AF9257620680169F9
:10118000C943490717D4C168C943490713D46FF04D
:1011900004010161022020762068806910F4407FFC
:1011A000204602D0FFF7CAFF04E000F07BF820469B
:1011B00000F0FDF8257620680169C943090716D4B7
:1011C000C168C943090712D46FF008010161042006
:1011D00020762068C0698007204602D0FFF7AEFF66
:1011E00004E000F05FF8204600F0E1F82576206882
:1011F0000169C943C90617D4C168C943C90613D4D4
:101200006FF010010161082020762068C06910F499
:10121000407F204602D0FFF791FF04E000F042F843
:10122000204600F0C4F8257620680169C943C90743
:1012300008D1C168C943C90704D1891E016120468C
:1012400000F0CEF820680169C943090609D4C168D5
:10125000C943090605D46FF0800101612046FFF7FC
:101260005EFF20680169C943490609D4C168C943C2
:10127000490605D46FF040010161204600F0D0F826
:1012800020680169C94389060BD4C168C94389062E
:1012900007D46FF0200101612046BDE87040FFF7E0
:1012A0003FBF70BD704770B5044690F838000D46DA
:1012B00001280DD0012684F83860022084F8390016
:1012C00042B1042A18D0082A2AD00C2A4DD139E07C
:1012D000022070BD206800F009FA2068816941F0A1
:1012E000080181612068816921F004018161206821
:1012F00081692A69114311E0206800F01FFA206813
:10130000816941F4006181612068816921F4806113
:101310008161206881692A6941EA0221816124E0B2
:10132000206800F037FA2068C16941F00801C16106
:101330002068C16921F00401C1612068C1692A697E
:10134000114311E0206800F051FA2068C16941F4AE
:101350000061C1612068C16921F48061C1612068B8
:10136000C1692A6941EA0221C16184F8396000201B
:1013700084F8380070BD10B5040003D094F839002B
:1013800010B107E0012010BD002084F8380020468D
:1013900000F00CF8022084F83900211D206800F0CC
:1013A00051F9012084F83900002010BD70477047C2
:1013B00010B504460068012200F08CF90749206846
:1013C000884203D1416C41F40041416420680168C6
:1013D00041F001010160002010BD0000000001404B
:1013E0000B4910B50B4800224A6202600A4A136892
:1013F000DC6824F00104DC60084B9B68C3620123B5
:1014000043611268D81E106181F8203010BD0000C1
:101410002C00002000000140B80000200000002047
:101420007047FEE7FEE770470907090E002806DA55
:1014300000F00F0000F1E02080F8141D704700F16B
:10144000E02080F8001470477047704710B5FFF730
:1014500037FBBDE81040FFF75EBE000030B5244802
:1014600093B00024016841F080510160006800F0F1
:10147000805011901F48016841F4404101600068AC
:10148000022500F4404011900120039010200490A8
:10149000009506950820CDE907406420CDE90905AF
:1014A00004200B906846FFF787FC00B1FEE70F2091
:1014B000CDE90C054FF48050CDE90E4005210CA874
:1014C0001094FFF7A9FB00B1FEE7FFF73DFC4FF4D6
:1014D0007A71B0FBF1F0FFF70AFE0420FFF7FAFD86
:1014E00000221146501EFFF765FB13B030BD00000F
:1014F00040380240007000401048016841F470011B
:1015000001600F48016841F0010101600C4A0021AF
:101510000832116002680B4B1A400260031D0A4A30
:101520001A60026822F48022026005480C300160D3
:1015300002495806803908607047000088ED00E0D5
:1015400000380240FFFFF6FE103000240148FFF78C
:10155000F6BD0000B80000202DE9F8433348002410
:10156000016841F00101016000684FF4964300F00A
:10157000010000902E48304A314D01682D48B1FBE2
:10158000F0F0B1FBF3F1C2E9020100EB8001490088
:101590002422B1FBF2F70F22B1FBF2F62749C5E98D
:1015A0000014401EC5E903042846AC60FFF7E3FEC3
:1015B000002211461920FFF7FDFA1920FFF7EEFA75
:1015C00005F13C004FF06008C0F80080C0E90174EC
:1015D000C4600146046100223C38FFF764FE05F157
:1015E00058000146C0F80080C0E90164C46004618D
:1015F0004461846104225838FFF755FE2846FFF7FE
:1016000090FD00212846FFF7D3FE2868016A41F2C9
:101610001112114207D1016A9210114203D10168DF
:1016200021F001010160BDE8F88300004438024068
:101630002400002000350C000000002000000140C4
:10164000B8000020F0B502681B4B1C4C9F031C4DDA
:101650001C4E984207D0B84205D0A04203D0A84201
:1016600001D0B04204D122F0700C4A6842EA0C0268
:10167000984210D0B8420ED0A0420CD0A8420AD056
:10168000B04208D0104CA04205D0104CA04202D06D
:101690000F4CA04203D122F44074CA682243026076
:1016A0008A68C2620A688262984201D1096901634C
:1016B00001214161F0BD0000000001400004004034
:1016C00000080040000C0040004001400044014080
:1016D0000048014010B50123046A8B409C4304621A
:1016E000036A8A401343036210BD000030B5026AEA
:1016F00022F001020262026A4368846924F07305E1
:101700000C682C4322F002058A682A430A4DA8423D
:101710000BD122F00805CA6823F440732A434D69AF
:1017200022F004021D438B692B43436084614968A6
:101730004163026230BD00000000014030B5026A22
:1017400022F010020262026A436884690D6824F480
:10175000E64444EA05248D6822F0200242EA05129C
:101760000B4DA8420ED1CD6822F0800242EA05124C
:101770004D6923F4406343EA85038D6922F04002FA
:1017800043EA85034360846149688163026230BD36
:101790000000014030B5026A22F480720262036ADE
:1017A0004268C46923F4007324F073050C682C4369
:1017B0008D6843EA05230C4DA8420ED1CD6823F471
:1017C000006343EA05234D6922F4405242EA0512C0
:1017D0008D6923F4806342EA05124260C46149685E
:1017E000C163036230BD00000000014030B5026AF1
:1017F00022F480520262046A4268C3690D6823F4CD
:10180000E64343EA05238D6824F4005444EA053492
:10181000064DA84204D14D6922F4804242EA851265
:101820004260C36149680164046230BD0000014048
:10183000FEE700002DE9F047494E00274FEA070573
:1018400086F8207006EB051420460021A76000F002
:10185000C5F82046012100F0C1F86D1C022DF1D31E
:10186000DFF800A1404E41483F4B4C3EDFF8FC8082
:10187000DAF800103D4FB8384FF46062A6F1040C5E
:10188000A8F16008994201D9326009E0B94202D951
:10189000CCF8002004E0414501D9C26000E082603C
:1018A000DFF8C09009F16009D9F800409C4201D9E5
:1018B000326009E0BC4202D9CCF8002004E0444583
:1018C00001D9C26000E08260264C4FF46012C0343F
:1018D00025689D4201D9326009E0BD4202D9CCF8A9
:1018E000002004E0454501D9C26000E0826030205C
:1018F0004860D9F8003058602368586019486FF084
:101900001F03743805682B61DAF80020136843F070
:1019100001031360D9F800100A6842F001020A605E
:1019200021680A6842F001020A600168CA6842F44C
:101930008072CA600168CA6842F40072CA600168B5
:10194000CA6842F48062CA6009490A4A8968491E25
:1019500051620068016841F001010160BDE8F08753
:101960002C0000202C01002058640240B860024086
:101970000000002000000140C0F1FF00552805D202
:1019800000EB4001A0EB8000FF3015E0AA2809D24F
:101990005538C0B2A0EB800100EB4000FF3141EAB6
:1019A00000207047AA38C0B2A0EB80014FF47F42FC
:1019B00002EB012100EB400041EA0040704702E0E9
:1019C00008C8121F08C1002AFAD1704770470020CA
:1019D00001E001C1121F002AFBD17047F8B58268EF
:1019E0000568531C83605C1CAA5C8460EB5C661C0D
:1019F00086602C5D4568AE4201D10025856000946B
:101A000089B2007B00F0F4F8F8BDFFF761F8FFF74A
:101A100025FD00F075F800F043F8FCE72DE9F047EC
:101A200000261C4692460F460546B1464FF0030875
:101A300030E000BFFEF7FEFBB0FBFAF20AFB12003B
:101A400030B906EB4601FF2068542944487088707D
:101A500006EB4600295CA14204D9B1FBF4F2891AD5
:101A6000295401E005F8009028444178A14204D9A6
:101A7000B1FBF4F2891A417001E080F8019081789D
:101A8000A14204D9B1FBF4F2891A817001E080F817
:101A90000290761CB7FBF8F0B042CBD8BDE8F087D7
:101AA00010B5074C94F82000002808D000F00AF880
:101AB000012084F82100BDE8104000F065B810BD99
:101AC0002C00002010B5FEF7F5FF0B4C6168401AA2
:101AD0000A2810D9FEF7EEFF60600F22B4210748F4
:101AE00000F02CF80548282332223C21BDE81040A4
:101AF000B430FFF793BF10BD100000204C0200204F
:101B0000F0B40C4B0020B4240B4A03F1B4053C267E
:101B100002EB0011C707087308D0C1E90056401C4A
:101B2000C0B20228F4D3F0BC00F03CB8C1E90034E4
:101B3000F5E700004C0200202C0000202DE9F041C8
:101B4000054610480E46002301789046491CCCB249
:101B5000047003270FE01902B1FBF8F02044C0B273
:101B6000FFF70AFF03EB4301020A68542944000C03
:101B70004A7088705B1CB6FBF7F09842EBD8BDE862
:101B8000F081000010000020054890F82110002985
:101B900004D0002180F82110FFF74CBE70470000F0
:101BA0002C0000200F4810B5026886B0002142F0DA
:101BB000040202600068012400F0040005900F2078
:101BC0000090CDE90141039169460748FEF7AEFE5A
:101BD000FEF77CFBFFF7C0FC044880F8204006B00D
:101BE00010BD000030380240000802402C000020E8
:101BF00030B52B4C039D01EB4101A25CE35C655DBC
:101C0000CC00E943274DD24305EB4404640104EBC7
:101C10008000DB4300F10850DC0904609C09046487
:101C20005C09C0F880401C09C0F8C040DC08C0F85E
:101C300000419C08C0F840415C08C0F88041C0F8F1
:101C4000C031D309C0F800329309C0F840325309BB
:101C5000C0F880321309C0F8C032D308C0F800338E
:101C60009308C0F840335308C0F88033C0F8C0234D
:101C7000CA09C0F800248A09C0F840244A09C0F8FB
:101C800080240A09C0F8C024CA08C0F800258A08C0
:101C9000C0F840254A08C0F88025C0F8C01530BDFE
:101CA000A81C0008580000200000000000000000F0
:101CB0000000000000000000000000000000000024
:101CC0000000000001010101010101010101010108
:101CD00001020202020202020203030303030303DE
:101CE000040404040405050505060606060707079F
:101CF000070808080909090A0A0A0B0B0B0C0C0D46
:101D00000D0D0E0E0F0F10101111121213131414CB
:101D10001515161617181819191A1B1B1C1D1D1E30
:101D20001F202021222323242526272728292A2B68
:101D30002C2D2E2F303132323334363738393A3B6E
:101D40003C3D3E3F40424344454648494A4B4D4E48
:101D50004F515253555657595A5C5D5F60626365E7
:101D60006668696B6D6E7072737577787A7C7E7F4A
:101D700081838587898A8C8E90929496989A9C9E6E
:101D8000A0A2A4A7A9ABADAFB1B4B6B8BABDBFC14C
:101D9000C4C6C8CBCDD0D2D5D7DADCDFE1E4E7E9E1
:101DA000ECEFF1F4F7F9FCFF000610160006101630
:101DB00000000000000000000102030406070809FB
:101DC000E01D0008000000202C000000BE190008E3
:101DD0000C1E00082C00002014070000CE1900087B
:101DE0000F00000000000F000000000000000000D5
:101DF00000000000000000000100000010000000D2
:0C1E0000000000000024F40000000000BE
:040000050800019955
:00000001FF
