:020000040800F2
:10000000503000206902000897160008B11300085C
:10001000951600081B0400089D1C00080000000045
:10002000000000000000000000000000AD0100081A
:10003000E10400080000000001020008D5160008D5
:10004000830200088302000883020008830200087C
:10005000830200088302000883020008830200086C
:10006000830200088302000883020008830200085C
:10007000830200088302000883020008830200084C
:100080003104000883020008830200080000000019
:1000900000000000000000000000000083020008D3
:1000A000830200088302000883020008830200081C
:1000B000830200088302000883020008830200080C
:1000C00083020008830200088302000883020008FC
:1000D0008302000883020008830200080000000079
:1000E0008302000883020008830200080000000069
:1000F0000000000000000000000000008302000873
:100100000000000083020008830200088302000848
:1001100000000000000000000000000000000000DF
:10012000830200088302000883020008830200089B
:100130008302000800000000000000000000000032
:100140000000000000000000000000008302000822
:10015000830200088302000883020008830200086B
:100160008302000883020008000000000000000075
:10017000000000000000000000000000000000007F
:1001800000000000830200080000000000000000E2
:100190008302000883020008DFF80CD000F0EAF8C0
:1001A00000480047C91C0008503000202B4B19683C
:1001B0000868B0E8F04F80F30988BFF36F8F4FF005
:1001C000000080F3118870470000000006480068B6
:1001D000006880F3088862B661B6BFF34F8FBFF343
:1001E0006F8F00DF00BF00BF08ED00E0DFF80C00FC
:1001F000016841F470010160704700BF88ED00E0C4
:10020000EFF30980BFF36F8F144B1A681EF0100FC5
:1002100008BF20ED108A20E9F04F106008B44FF0BD
:10022000500080F31188BFF34F8FBFF36F8F02F040
:1002300061FE4FF0000080F3118808BC196808685F
:10024000B0E8F04F1EF0100F08BFB0EC108A80F33A
:100250000988BFF36F8F704700BF00BF34090020CB
:10026000EFF30580704700000648804706480047C6
:10027000FEE7FEE7FEE7FEE7FEE7FEE7FEE7FEE756
:10028000FEE7FEE765170008990100082DE9F05F19
:100290000546002092469B468846064681464024F5
:1002A0001BE0284641464746224600F053F8534695
:1002B0005A46C01A914110D311461846224600F002
:1002C0003AF82D1A67EB01084F462246012000211B
:1002D00000F031F817EB00094E41201EA4F1010493
:1002E000DFDC484631462A464346BDE8F09F40EAF7
:1002F00001039B0703D009E008C9121F08C0042AA4
:10030000FAD203E011F8013B00F8013B521EF9D28A
:100310007047D2B201E000F8012B491EFBD27047B2
:100320000022F6E710B513460A4604461946FFF7C1
:10033000F0FF204610BD202A04DB203A00FA02F12B
:10034000002070479140C2F1200320FA03F31943C3
:1003500090407047202A04DB203A21FA02F0002165
:10036000704721FA02F3D040C2F1200291400843C5
:1003700019467047064C074D06E0E06840F001035F
:1003800094E8070098471034AC42F6D3FFF708FF13
:10039000403B0008603B000870B58D1810F8014B19
:1003A00014F0030201D110F8012B231106D110F82B
:1003B000013B03E010F8016B01F8016B521EF9D10B
:1003C000ABB110F8012B04F00C048A1A0C2C03D0EA
:1003D000A2EB84129B1C08E010F8014BA2EB042254
:1003E000F8E712F8014B01F8014B5B1EF9D5A94261
:1003F000D4D3002070BD0A2002F08AB91FB50020B6
:100400003221CDE90201009003460A4601900A21FB
:100410004FF47A7002F09AF91FBDFEE70022142310
:100420001146322002F0D1B9322002F0E7B90000C3
:10043000014800F05DB80000E80B002001681823B7
:10044000CAB2103AB2FBF3F2054B6FF30901032A6B
:100450009B5CC36500D9091D816508467047000093
:10046000AC3A000810B5014600208B698A6A4FF04B
:10047000C07453B1B3F5005F15D072B1012A0CD02E
:10048000022A0AD0032A09D104E01AB1012A06D0AF
:10049000022A03D1C96AC90100D5012010BDC96A69
:1004A000A142FAD010BD002AF7D0012AF2D0022AC8
:1004B000F3D0032AF3D010BD30B50468256825F4C5
:1004C00080252560046863608368402B036803D03F
:1004D00099600068C26030BD9A600068C16030BD3C
:1004E0007047704714231A461946322002F0ACB9FF
:1004F0002DE9F84304464FF00009CDF80090634819
:100500004FF41651A56D0068B0FBF1F72E6894F812
:100510005C10082000FA01F131420FD021680A680E
:1005200052070BD50A6822F004020A6094F85C10A6
:100530008840A860606D40F00100606594F85C1030
:100540004FF0010808FA01F0304208D021684969EB
:10055000090604D5A860606D40F00200606594F85B
:100560005C1004208840304208D02168096889075F
:1005700004D5A860606D40F00400606594F85C10DC
:1005800010208840304218D021680968090714D526
:10059000A86020680168490304D50068000308D5F5
:1005A000A16C07E00168C90503D4016821F00801C6
:1005B0000160216C09B12046884794F85C10202026
:1005C0008840304231D021680968C9062DD5A8601D
:1005D00094F8350005282068016806D0490347D5FE
:1005E000006800031DD4616C1CE021F0160101605D
:1005F0002068416921F080014161206C08B9A06C3C
:1006000020B12068016821F00801016094F85C10B5
:100610003F208840A86084F8349084F83580216DAC
:100620001FE0E16B09B120468847606D00282BD0A0
:10063000606DC00714D0052084F83500206801687B
:1006400021F0010101600098401C0090B84203D8DD
:1006500020680068C007F6D184F8349084F83580AB
:10066000E16C002910D001B02046BDE8F0430847F6
:100670000168C905D5D4016821F01001016084F832
:10068000349084F83580CCE7BDE8F8833009002049
:100690002DE9F041044600F065F906465CB10025FD
:1006A00084F83450022084F835002068016821F075
:1006B000010101600DE00120BDE8F08100F052F978
:1006C000801B052805D920206065032084F83500AB
:1006D000F2E720680068C007F0D12268116820485E
:1006E0000140D4E901031843D4E9033633431843E6
:1006F00063691843A3691843E3691843236A1843DD
:100700000843616A042903D1D4E90B131943084350
:10071000106020684069666A20F0070130460E4389
:10072000012704280CD1A06A0643E06A40B12046A4
:10073000FFF798FE20B14020606584F83570BAE775
:10074000206846612046FFF779FE94F85C203F213F
:1007500091408160656584F835700020ACE7000049
:100760003F8010F02DE9F0410446866D90F834008A
:10077000002501280DD0012084F8340094F835704C
:100780000020012F07D084F8340002252846BDE858
:10079000F0810220FBE7022784F83570606520466F
:1007A000FFF78AFE94F85C103F208840B060206814
:1007B000016841F0160101602068416941F0800143
:1007C0004161206C20B12068016841F0080101609E
:1007D0002068016841F001010160D7E72DE9F84F79
:1007E000DFF860B100224FF001084FF0030A4FF02C
:1007F0000F090BF1040E00BF0B6808FA02F4234046
:10080000A3426ED14D68022D01D0122D0ED1D50814
:1008100000EB850CDCF820505607F70E09FA07F6B6
:10082000B5430E69BE402E43CCF8206006685500E3
:100830000F790AFA05FC07F0030726EA0C06AF4019
:10084000374307604E68012E05D0022E03D0112ECB
:1008500001D0122E0ED18668CF6826EA0C06AF4072
:10086000374387604668A6430C79C4F3001494406C
:1008700034434460C6688C6826EA0C06AC403443B6
:10088000C4604C68E40056D52F4C256845F480457B
:100890002560246822F0030504F4804400942B4C66
:1008A0002E19D6F8084895072F0F09FA07F5AC431B
:1008B000274DA84201D1002515E0264DA84201D1BF
:1008C000012510E0244DA84201D102250BE0234D63
:1008D000A84201D1032506E0214DA84202D10425FA
:1008E00001E028E00725BD402543C6F80858DBF89D
:1008F00000405D464E689C43F60300D51C432C60C7
:10090000DEF8004075464E689C43B60300D51C4394
:100910002C600C4D08352C684E689C43F60200D5BF
:100920001C432C60074D0C352C684E689C43B60266
:1009300000D51C432C60521C102AFFF45DAFBDE8AB
:10094000F88F0000003C0140443802400030014074
:10095000000002400004024000080240000C024077
:100960000010024001488068704700002409002000
:100970000248816802781144816070472409002090
:100980000B4810B5016841F400710160016841F441
:1009900080610160016841F480710160032000F012
:1009A00071F80F2000F006F800F024F8002010BDC8
:1009B000003C024070B50D4D04464FF47A71287822
:1009C000B1FBF0F00A490968B1FBF0F000F0E4FA7D
:1009D00048B9102C07D200222146501E00F032F8F0
:1009E00000206C6070BD012070BD00002409002053
:1009F000300900200C4882B0016841F48041016058
:100A0000006800F4804000900748001F016841F032
:100A1000805101600068002200F0805000900F219A
:100A2000901E02B000F00EB84438024000F01F02E1
:100A3000012191404009800000F1E020C0F8001140
:100A400070470000F0B40E4B1B680C46C3F3022342
:100A5000C3F10705042D00D90425191D072901D26A
:100A6000002300E0DB1E012606FA05F1491E2140A5
:100A700099409E40761E16403143F0BC00F00CBEFB
:100A80000CED00E0064900F0070208684FF6FF038E
:100A9000184040EA0220034A1043086070470000F3
:100AA0000CED00E00000FA052DE9F0470E460500C8
:100AB00065D0DFF81481D8F80000F7B200F00F001D
:100AC000B04207D288F80070D8F8000000F00F009C
:100AD000B04254D128683D4C810712D5400703D558
:100AE000206840F4E05020602878000703D5206893
:100AF00040F4604020602068A96820F0F0000843BE
:100B000020602878C0072DD030496868083901284E
:100B100012D0022813D0032811D0096889070029B0
:100B20002DDA216821F0030101432160FFF71AFF4C
:100B3000814641F2883A0EE009688903EFE70968C7
:100B40008901ECE7FFF70EFFA0EB0901514502D93F
:100B50000320BDE8F0872068696800F00C00B0EB66
:100B6000810FEFD1D8F80010404601F00F01B142DB
:100B700007D90770006800F00F00B04201D00120D3
:100B8000E7E72878400705D52068E96820F4E050B9
:100B9000084320602878000706D52068296920F4DA
:100BA000604040EAC100206000F036F82168084A41
:100BB000C1F30311515CC840064908600F20FFF7DC
:100BC000F9FE0020C5E70000003C02400838024062
:100BD000B43A000830090020044805490068096853
:100BE000044AC1F38221515CC8407047300900209B
:100BF00008380240C43A00080448054900680968FA
:100C0000044AC1F34231515CC840704730090020AA
:100C100008380240C43A0008154810B5006810F0C2
:100C20000C02144813D01449042A0FD0082A0ED1FC
:100C30000F4C241F2268236802F03F025B0207D595
:100C40002068C0F38810A0FB010106E0084610BD33
:100C50002168C1F38811A1FB00010023FFF716FBF7
:100C60002168C1F30141491C4900B0FBF1F010BDFE
:100C7000083802400024F40040787D012DE9F84F47
:100C8000050076D02878DFF8F8B2BE4CC00749D00E
:100C9000DBF800105846C1F38101012908D0006833
:100CA000C0F3810002280AD1201D0068400206D549
:100CB0002068800336D568680028E2D032E0686892
:100CC000B0F5803F10D0B0F5A02F206810D020F4F0
:100CD00080302060206820F4802020606868A0B107
:100CE000FFF740FE06460CE0206840F48030F4E751
:100CF00040F480202060F7E7FFF734FE801B642873
:100D000073D820688003F7D50CE0FFF72BFE06466A
:100D100005E000BFFFF726FE801B6428F0D820689E
:100D20008003F7D42878DFF8608280074FF000094D
:100D30003ED5DBF80010584611F00C0F09D00068C2
:100D4000C0F3810002280BD18D48001F00684002CB
:100D500006D42068800715D5E868012809D111E07C
:100D6000E868B8B10120C8F80000FFF7FBFD0646AF
:100D700005E002E1FFF7F6FD801B0228C0D82068DD
:100D80008007F7D52068296920F0F80040EAC10003
:100D900020600DE0C8F80090FFF7E4FD064604E08F
:100DA000FFF7E0FD801B02281FD820688007F7D4DA
:100DB0002878000722D5724E744869696C3671B183
:100DC00001210160FFF7CEFD074604E0FFF7CAFDF1
:100DD000C01B022809D830688007F7D50EE0C0F89C
:100DE0000090FFF7BFFD074605E083E0FFF7BAFD7F
:100DF000C01B02287ED830688007F7D428784007C7
:100E000068D5DFF87CA100270AF1380ADAF800007B
:100E1000C0000BD4DAF8001041F08051CAF800107D
:100E2000DAF80000012700F080500090584E30683A
:100E3000C00510D4306840F480703060FFF792FD38
:100E4000009005E0FFF78EFD0099401A022851D866
:100E50003068C005F6D54A4EA868683601280FD01C
:100E60000528306810D020F001003060306820F094
:100E700004003060A868B8B1FFF774FD00900FE07F
:100E8000306840F00100F4E740F004003060F7E71C
:100E9000FFF768FD0099411A41F28830814264D819
:100EA00030688007F4D50EE0FFF75CFD009007E0A6
:100EB000FFF758FD0099411A41F28830814254D819
:100EC00030688007F4D42FB1DAF8001021F0805197
:100ED000CAF80010A869C0B3DBF80010C1F38101A3
:100EE00002294AD00228484607D0C8F86000FFF718
:100EF00039FD00E039E005463AE04746C8F86000B1
:100F0000FFF730FD064604E0FFF72CFD801B0228AA
:100F10002BD820688001F7D4D5E907010843A96AD6
:100F20001C4A490802EB01416A6A41EA82110843FE
:100F300095F82C1040EA01611148001F0160012062
:100F40003866FFF70FFD054605E014E0FFF70AFDE0
:100F5000401B022809D820688001F7D50BE000BFAC
:100F6000FFF700FD401B022802D90320BDE8F88FDF
:100F700020688001F4D40020F8E70120F6E70000A3
:100F8000083802400038024000004742800E4742C5
:100F9000007000400000FFFF10B5401EB0F1807FE0
:100FA00001D3012010BD4FF0E02460610F216017D4
:100FB00000F072FB0020A06107202061002010BD1E
:100FC00030B590F83820012A20D0012280F838204E
:100FD000022380F8393003685C6824F070045C6098
:100FE00003685C680D682C435C6003689C6824F0AF
:100FF00080049C6003689C6849680C439C6080F88E
:101000003920002180F83810084630BD022030BD5C
:101010007047000010B586B0044614216846FFF7FB
:101020007FF92068B0F1804F14D10B48016841F07E
:10103000010101600068012100F0010005902020FD
:1010400000900220CDE90101CDE903016946034882
:10105000FFF7C4FB06B010BD30380240000002406C
:1010600070B5044690F838000D4601280DD00126D1
:1010700084F83860022084F8390042B1042A18D07C
:10108000082A2AD00C2A4DD139E0022070BD2068F0
:1010900000F00CFC2068816941F008018161206842
:1010A000816921F004018161206881692A69114305
:1010B00011E0206800F022FC2068816941F40061A1
:1010C00081612068816921F4806181612068816982
:1010D0002A6941EA0221816124E0206800F03AFC9B
:1010E0002068C16941F00801C1612068C16921F02F
:1010F0000401C1612068C1692A69114311E02068B7
:1011000000F054FC2068C16941F40061C1612068AD
:10111000C16921F48061C1612068C1692A6941EA1D
:101120000221C16184F83960002084F8380070BD64
:1011300010B5040003D094F8390010B107E0012085
:1011400010BD002084F83800204600F00DF8022081
:1011500084F83900211D206800F02EFB012084F85E
:101160003900002010BD000038B505460068B0F118
:10117000804F25D113480021026842F0010202602D
:101180000068124C00F0010000900F4820604FF002
:10119000C06060604020C4E902010001206180005D
:1011A00060618000A0618011E0614002C4E9080133
:1011B0002046FFF76DFA08B1FFF793F92C62A5639B
:1011C00038BD00004038024088600240E80B002033
:1011D0007047000070B5044690F8390016460D4679
:1011E000022805D094F83900012805D10EB903B1C1
:1011F00070BD022084F839002C482D4935B1042DEA
:1012000013D0082D34D00C2D1ED140E0226AD063BB
:10121000206AC164226831463432206AFFF7A2FA9C
:101220002068C16841F400710DE0626AD063606AB1
:10123000C164226831463832606AFFF793FA206849
:10124000C16841F48061C16001222946206800F034
:10125000FBFA18492068884203D1416C41F40041EF
:1012600041642068016841F001010160002070BD07
:10127000A26AD063A06AC164226831463C32A06A87
:10128000FFF770FA2068C16841F40061DBE7E26AA9
:10129000D063E06AC164226831464032E06AFFF7F9
:1012A00061FA2068C16841F48051CCE75F180008FA
:1012B0009D1800080000014070B5040004D094F8A7
:1012C0003900002510B106E0012070BD84F83850C7
:1012D000204600F023F8242084F839002068C168F3
:1012E00021F40051C160204600F082FB20680169B2
:1012F00021F4904101612068416921F02A01416196
:101300002068C16841F40051C160E563202084F881
:10131000390084F83A00002070BD0000F0B587B0B5
:10132000044614216846FEF7FBFF1D4F22681D4945
:1013300002230124032507261B48BA4213D1194A68
:101340001432176847F010071760126802F0100295
:1013500005920A6842F001020A60096801F0010181
:101360000591690215E0114FBA4217D10D4A1032AA
:10137000176847F400371760126802F400320592CC
:101380000A6842F001020A60096801F00101059152
:101390000C218DE87A006946FFF720FA07B0F0BD0E
:1013A000001001403038024000000240004400407C
:1013B000FEE71023002240214FF42F7001F068BA9D
:1013C000094808B5016841F4001101600068002275
:1013D00000F40010009005211020FFF733FBBDE85A
:1013E00008401020FFF722BB3038024010B53948C2
:1013F000AEB0012200682D9011462DA800F0CCFC63
:10140000354C0F21606200F0D9FC32491422091DCD
:101410006846FEF76CFF0021684600F086FC2D4907
:1014200020601422183105A8FEF761FF002105A8ED
:1014300000F07BFC2749606014222C310AA8FEF7DB
:1014400056FF00210AA800F070FC2249A060142277
:1014500040310FA8FEF74BFF00210FA800F065FCFC
:101460001C49E0601422543114A8FEF740FF00210B
:1014700014A800F05AFC174920611422683119A8F9
:10148000FEF735FF002119A800F04FFC11496061FB
:1014900014227C311EA8FEF72AFF00211EA800F0AE
:1014A00044FC0C49A0611422903123A8FEF71FFFD1
:1014B000002123A800F039FC0649E0611422A43180
:1014C00028A8FEF714FF002128A800F02EFC2062B7
:1014D0002EB010BDF4390008FC080020054808B5FE
:1014E000016841F001010160006800F00100009016
:1014F00008BD0000303802401CB500241A48009492
:101500004FF080410194C0E900144FF4F371416140
:101510001321C0E902410461FFF70AFE08B1FEF79A
:10152000E0FF0094694610480194FFF749FD08B1B7
:10153000FEF7D7FF0C4860211C380022846004614C
:101540004461016001461C30FFF78AFD08B1FEF7D7
:10155000C8FF40F2E513054A00210348FFF73AFEB1
:101560000148FFF757FD1CBDAC0B0020A809002067
:101570000C4810B50A4901604FF4E1314160002187
:1015800081600C22C160C0E904128161C161FFF772
:1015900093FE002803D0BDE81040FEF7A2BF10BDA7
:1015A00000100140480C00200C4810B50A490160A9
:1015B0004FF4E1314160002181600C22C160C0E93B
:1015C00004128161C161FFF777FE002803D0BDE8F6
:1015D0001040FEF786BF10BD00440040880C00207C
:1015E0002B4CA06800F0D2FBE06800F0CFFB206934
:1015F00000F0CCFB606900F0C9FBA06900F0C6FBFD
:10160000E06900F0C3FB206A00F0C0FB42F21075F5
:10161000A06800F0A1FB284600F071FBA06800F074
:10162000B5FBE06800F098FB284600F068FBE06836
:1016300000F0ACFB206900F08FFB284600F05FFB58
:10164000206900F0A3FB606900F086FB284600F0EB
:1016500056FB606900F09AFBA06900F07DFB28460C
:1016600000F04DFBA06900F091FBE06900F074FB15
:10167000284600F044FBE06900F088FB206A00F097
:101680006BFB284600F03BFB206A00F07FFBBFE7C6
:10169000FC080020FEE770470907090E002806DA5B
:1016A00000F00F0000F1E02080F8141D704700F1F9
:1016B000E02080F80014704708B50A20034602466F
:1016C00000900221322001F04CF908BD012000F009
:1016D00016FBFBE710B5FFF74BF9BDE8104000F033
:1016E0001ABB000030B593B030216846FEF718FEF3
:1016F00014210CA8FEF714FE18480025016841F0DB
:1017000080510160006800F0805011901448016819
:1017100041F4404101600068022400F4404011900F
:101720000120039010200490009406940820CDE935
:1017300007505020CDE9090404200B906846FFF7BC
:101740009DFA0CA90F2081E83100E002CDE90F05D8
:1017500002210CA8FFF7A8F913B030BD40380240B1
:10176000007000401048016841F4700101600F48AA
:10177000016841F0010101600C4A0021083211604A
:1017800002680B4B1A400260031D0A4A1A60026885
:1017900022F48022026005480C300160024958069C
:1017A000803908607047000088ED00E00038024092
:1017B000FFFFF6FE10300024F0B502681B4B1C4CF6
:1017C0009F031C4D1C4E984207D0B84205D0A04242
:1017D00003D0A84201D0B04204D122F0700C4A6874
:1017E00042EA0C02984210D0B8420ED0A0420CD06F
:1017F000A8420AD0B04208D0104CA04205D0104CEC
:10180000A04202D00F4CA04203D122F44074CA6817
:10181000224302608A68C2620A688262984201D1E9
:101820000969016301214161F0BD00000000014030
:101830000004004000080040000C0040004001404F
:10184000004401400048014010B50123046A8B4068
:101850009C430462036A8A401343036210BD10B5BF
:10186000846B012184F83910226A824201D12176E9
:101870000EE0616A814201D1022008E0A16A814242
:1018800001D1042003E0E16A814201D108202076E1
:101890002046FFF79DFC0020207610BD10B5806B20
:1018A000012180F83910FFF7B3FB10BD30B5026A93
:1018B00022F001020262026A4368846924F073051F
:1018C0000C682C4322F002058A682A430A4DA8427C
:1018D0000BD122F00805CA6823F440732A434D69EE
:1018E00022F004021D438B692B43436084614968E5
:1018F0004163026230BD00000000014030B5026A61
:1019000022F010020262026A436884690D6824F4BE
:10191000E64444EA05248D6822F0200242EA0512DA
:101920000B4DA8420ED1CD6822F0800242EA05128A
:101930004D6923F4406343EA85038D6922F0400238
:1019400043EA85034360846149688163026230BD74
:101950000000014030B5026A22F480720262036A1C
:101960004268C46923F4007324F073050C682C43A7
:101970008D6843EA05230C4DA8420ED1CD6823F4AF
:10198000006343EA05234D6922F4405242EA0512FE
:101990008D6923F4806342EA05124260C46149689C
:1019A000C163036230BD00000000014030B5026A2F
:1019B00022F480520262046A4268C3690D6823F40B
:1019C000E64343EA05238D6824F4005444EA0534D1
:1019D000064DA84204D14D6922F4804242EA8512A4
:1019E0004260C36149680164046230BD0000014087
:1019F0002DE9F04104460068016921F44052E16894
:101A0000114301612168C86849F20C62904323695F
:101A1000A268E5691A4363692B431A430243CA600B
:101A20002168486920F44072A06910434861E16967
:101A30006425B1F5004F9748974A21684FF0320866
:101A40003FD0914201D081427CD1FFF7D5F800EB25
:101A5000C00101EB001061688900B0FBF1F6FFF7EF
:101A6000CBF800EBC00101EB001061688900B0FB0E
:101A7000F1F0B0FBF5F06FF01801484306EB800180
:101A800008EB0110B0FBF5F000F0F006FFF7B4F83A
:101A900000EBC00101EB001061688900B0FBF1F0C0
:101AA000B0FBF5F006EB0016FFF7A6F800EBC0015F
:101AB00001EB001061688900B0FBF1F7FFF79CF8BB
:101AC000D2E0914201D081423DD1FFF795F800EB81
:101AD000C00101EB001061684900B0FBF1F0B0FB00
:101AE000F5F00601FFF788F800EBC00101EB0010EC
:101AF00061684900B0FBF1F7FFF77EF800EBC00129
:101B000001EB001061684900B0FBF1F0B0FBF5F0AB
:101B10006FF01801484307EB800108EBC100B0FBF0
:101B2000F5F000F0F80006EB4006FFF765F800EB73
:101B3000C00101EB001061684900B0FBF1F7FFF74D
:101B40005BF83CE055E0FFF747F800EBC00101EB24
:101B5000001061684900B0FBF1F0B0FBF5F0060140
:101B6000FFF73AF800EBC00101EB00106168490093
:101B7000B0FBF1F7FFF730F800EBC00101EB00100C
:101B800061684900B0FBF1F0B0FBF5F06FF01801AF
:101B9000484307EB800108EBC100B0FBF5F000F013
:101BA000F80006EB4006FFF717F800EBC00101EB69
:101BB000001061684900B0FBF1F7FFF70DF800EB8A
:101BC000C00101EB001061684900B0FBF1F0B0FB0F
:101BD000F5F06FF01801484307EB800108EBC100F6
:101BE000B0FBF5F000F00700216830448860BDE8E4
:101BF000F081FEF7F1FF00EBC00101EB001061681E
:101C00008900B0FBF1F6FEF7E7FF00EBC00101EB46
:101C1000001061688900B0FBF1F0B0FBF5F06FF0E7
:101C20001801484306EB800108EB0110B0FBF5F00A
:101C300000F0F006FEF7D0FF00EBC00101EB001052
:101C400061688900B0FBF1F0B0FBF5F006EB00161F
:101C5000FEF7C2FF00EBC00101EB001061688900D4
:101C6000B0FBF1F7FEF7B8FF00EBC00101EB00108D
:101C700061688900B0FBF1F0B0FBF5F06FF018017E
:101C8000484307EB800108EB0110B0FBF5F000F0D2
:101C90000F00A9E70014014000100140FEE702E038
:101CA00008C8121F08C1002AFAD1704770470020E7
:101CB00001E001C1121F002AFBD17047EFF305803C
:101CC000002800D00120704710B5FEF759FEFFF73D
:101CD00009FDFFF703FCFFF773FBFFF749FCFFF774
:101CE00063FCFFF709FCFFF781FB00F00FF8002011
:101CF00010BD01460020842900D0C81C704710B5D3
:101D000000B9012000F06CFF002010BD10B501F0FB
:101D100059F8002010BD10B501F04CFC012803D08B
:101D2000BDE8104001F09CB910BD3EB504460D461B
:101D3000B0F90800FFF7DDFF02A9CDE90001208A14
:101D40002B4682B2D4E9001001F008FC012801D032
:101D500000203EBD02983EBD10B50446FFF7AEFF21
:101D6000002820460BD001F085FD012809D1064945
:101D700000070860BFF34F8FBFF36F8F01E000F0E3
:101D8000D1FF002010BD000004ED00E010B501F00F
:101D900051F8002010BD000008B50068009001292E
:101DA00007D0002013460246012103A001F0A6FD42
:101DB00008BD0120F6E70000000000002DE9FC410D
:101DC000002507462E4601950C0000D10124FFF79F
:101DD00075FF009690B101AB22460921384601F00B
:101DE000D9FD012812D1019888B10A494FF08050DD
:101DF0000860BFF34F8FBFF36F8F08E000232246C8
:101E00000421384601F0C6FD012800D0FF252846F0
:101E1000BDE8FC8104ED00E02DE9F041184C0F46CF
:101E20000546E6682068001D00F0C3FD38B920684B
:101E300090F82C1001208840216981432161681CA1
:101E400007D137B12168BDE8F0410E48091D00F007
:101E5000E8BD20683544B5424560216805D2A06BD5
:101E6000BDE8F041091D00F0C4BD606B091D00F024
:101E7000C0FDA06A854200D2A562BDE8F0810000E5
:101E800034090020E40D00202DE9F041054600F062
:101E9000D5FD2E4CA068401CA06020682C4F10B1CE
:101EA000606940B32DE02560A068012829D1002693
:101EB00006EB860007EB800000F08DFD761C072EF8
:101EC000F6D323488C3000F086FD2148A03000F086
:101ED00082FD1F48B43000F07EFD1D48C83000F080
:101EE0007AFD1B48DC3000F076FD19488C306063C9
:101EF0001430A06305E02068E96AC06A884200D80F
:101F00002560606A401C60626864E96A0120226999
:101F100088401043206101EB810007EB8000291D00
:101F200000F07FFD00F0AAFD606900280CD0206859
:101F3000E96AC06A884207D206494FF080500860BB
:101F4000BFF34F8FBFF36F8FBDE8F08134090020DE
:101F5000080D002004ED00E010B500F06FFD0E4C00
:101F60002068A0B90D4800F036FD0C48143000F090
:101F700032FD0A48E0601430206100220C210A2062
:101F800001F084F8206010B105A100F0F3FDBDE878
:101F9000104000F073BD000070090020F80D002013
:101FA000546D72510000000070B5114E114C17E0D5
:101FB00000F098FF3068B8B101F0FAFB00F03EFD88
:101FC000F068C568281D00F0F4FCA068401EA06001
:101FD0006068401E606000F051FD284600F055F832
:101FE00060680028E4D170BD01F0E2FBF8E7000072
:101FF000D00D00203409002030B4026C0B46002ABA
:102000000BD0C1681144C1604468A14201D301688A
:10201000C16030BC1846FEF76AB930BC70472DE984
:10202000F041856B174604460026026C82B1C7B1A9
:10203000E068FEF75CF9E168206C091AE16022684B
:10204000914202D26168081AE060022F16D017E0B0
:102050002068A8B9606801F025FB06460020606092
:102060000EE0A068FEF743F9216CA0680844A06068
:102070006168884204D32068A06001E005B16D1E4C
:102080006D1CA5633046BDE8F08110B50446006BB9
:1020900000F008FD2046BDE8104000F003BD000040
:1020A0000F4841F62C61420705D0C01D0C4A20F0B4
:1020B0000700821A891A0B4A00230144C2E900036F
:1020C0000839103A21F0070111604B600B600B1AC0
:1020D000C0E9001393604FF000405360D060704738
:1020E000200E002094090020074C4FF08056074D29
:1020F000FFF75AFF20680128FAD92E60BFF34F8FEF
:10210000BFF36F8FF4E70000080D002004ED00E03E
:102110002DE9F0470E46DDE9098417468246910015
:102120009946089DA522206BFEF7F3F86FF0030196
:10213000206B01EB8701084420F00707780707D0E0
:10214000502080F31188BFF34F8FBFF36F8FFEE7EE
:102150002218315C82F83410315C11B1401C102817
:10216000F6D3002684F84360072D00D30625E562E8
:10217000C4E91356201D00F039FC04F1180000F0EA
:1021800035FC2461C5F107006462A061666584F8CE
:1021900058604A465146384600F056FA2060B8F179
:1021A000000F01D0C8F80040BDE8F08730B51149F4
:1021B00000E011460A688242FBD34B685C188442F7
:1021C00003D1406818444860084643681C1894428C
:1021D00009D1084C103C2468A24209D052681A4424
:1021E00042600A6812680260814200D0086030BD17
:1021F0000460F9E79409002070B5002441600B4D9C
:102200000061914206D8D11A8269914206D2011D1D
:10221000286907E09A4203D2994201D3012403E0DE
:10222000011DE86800F0E5FB204670BD7009002044
:1022300010B5044600F002FCA06B28B15FF000046A
:1022400000F01CFC204610BD0124F9E730B587B032
:102250002B4D4BE00498002848DB069C606910B1C8
:10226000201D00F0A6FB02A800F0B6F80246049874
:102270000A283BD2DFE800F00505053A26370505B8
:102280003A260598A169034601442046FFF7B4FFAA
:1022900000B3616A20468847E069012826D1002002
:1022A00000900598A169002342181946204601F0C4
:1022B00071FB78B9502080F31188BFF34F8FBFF3C3
:1022C0006F8FFEE70598A06128B18118134620465C
:1022D000FFF792FF0AE0502080F31188BFF34F8F81
:1022E000BFF36F8FFEE7204600F0DCFB00231A46A9
:1022F00004A9286800F0F4FE0028ABD107B030BD77
:10230000700900202DE9FC410F46054600F0EAFD6A
:1023100001A800F061F80446019818B101F048FAEC
:10232000BDE8FC81224EAFB130690068A8B3002738
:10233000291B3A46306800F031FC01F039FA0028D8
:10234000EED11C494FF080500860BFF34F8FBFF3B0
:102350006F8FE5E7A542EBD801F02AFAF06827462F
:10236000C068C468201D00F024FBE069012810D17A
:10237000A0692B4641193A462046FFF73DFF40B180
:1023800000200346014600902A46204601F002FB49
:1023900020B1616A20468847C2E707E0502080F3F9
:1023A0001188BFF34F8FBFF36F8FFEE70127BFE7A1
:1023B0007009002004ED00E00648416B096829B16E
:1023C000416BC968C9684968816270474FF0FF3145
:1023D000FAE700003409002070B5054601F0F8F86E
:1023E000064E0446B068844203D200F009F801208A
:1023F00000E0002028602046B46070BD7009002015
:10240000F8B5194D1FE0C068C4680668201D00F0CB
:10241000D0FA616A20468847E069012813D1A06993
:102420003044B04206D924616060211DE86800F0A4
:10243000E0FA08E0002003460146009032462046BC
:1024400001F0A8FA38B1E86801680029DBD12969F0
:10245000C5E90310F8BD502080F31188BFF34F8FFA
:10246000BFF36F8FFEE70000700900200848406846
:10247000401C4FF0500080F3118804D0BFF34F8F01
:10248000BFF36F8FFEE7BFF34F8FBFF36F8FFEE792
:102490009C090020002150B10A4B42699A420FD199
:1024A000806AA3F1280290420AD040B108E050208F
:1024B00080F31188BFF34F8FBFF36F8FFEE70121C9
:1024C00008467047E40D0020074CE068016841B100
:1024D000C0680021D0F80000FFF714FFFFF7B6FE38
:1024E000F3E701210020F7E7700900202DE9F04112
:1024F000044600F0A3FA94F9455004F1240609E0DB
:10250000606A48B1304601F019F908B100F08EFB5D
:102510006D1E6DB2002DF3DC4FF0FF3684F8456080
:1025200000F0ACFA00F08AFA94F9445004F1100774
:1025300009E0206948B1384601F000F908B100F01F
:1025400075FB6D1E6DB2002DF3DC84F84460BDE8B0
:10255000F04100F093BA00002DE9F0410546002754
:1025600000F0C0FC314E306808B9FFF799FDF06803
:1025700005424BD1C5B3083568070ED005F00700FA
:10258000C0F108000544680707D0502080F3118887
:10259000BFF34F8FBFF36F8FFEE72DB37068854297
:1025A00034D82248103001460C6801E020460C4621
:1025B0006168A94202D221680029F7D131688C42B2
:1025C00024D007682168016060680837411B102922
:1025D0000FD96019420708D0502080F31188BFF34B
:1025E0004F8FBFF36F8FFEE710E041606560FFF72C
:1025F000DDFD61687068401A7060B268904200D278
:10260000B060F06801430020C4E9000101F0D0F897
:10261000780707D0502080F31188BFF34F8FBFF3A6
:102620006F8FFEE73846BDE8F08100008409002086
:102630000449086818B10868026D521C02650868F0
:10264000704700003409002010B5031F4FF080745C
:102650001C601B1F21F001011960191F044B0B6046
:1026600014390A60091F6FF0020244380A6010BD75
:102670006D24000870B586B000F00F050024684690
:1026800002FA04F6360601D50D2600E006260655A8
:10269000641C082CF4D3002201FA02F4240601D5AC
:1026A0000D2400E006248618521C3472082AF3D345
:1026B0005FF0000103FA01F2120601D50D2200E0DD
:1026C00006224418491C22740829F3D3074B002121
:1026D00005EB450201EBC205445C1D44491C85F82D
:1026E00032401829F6D306B070BD0000A8090020BA
:1026F000F0B515460E46074600242B4632463946AD
:102700002046FFF7B7FF641C102CF6D3F0BD000085
:102710000D4E074600250024281900EB40008119C2
:102720008B784A78315C2046FFF7A4FF641C102C9C
:10273000F2D36D1C281940F2FE21884200D30025F7
:102740003846FFF7DCFAE6E7000000202DE9FF5FDE
:1027500017460C46DDE90EB2DDE91010D21B1E460D
:10276000891BA0EB0B0092FBF4F991FBF4F890FBB2
:10277000F4FA002511E000BF05FB0AB0C2B205FB68
:102780000860C1B205FB0970C0B2FFF7B1FF009845
:10279000B0FBF4F0FFF7B3FA6D1CA542ECD3651E55
:1027A000E7D000BF05FB0AB0C2B205FB0860C1B2AA
:1027B00005FB0970C0B2FFF79BFF0098B0FBF4F077
:1027C000FFF79DFA6D1EEDD1D3E71D4616460F4665
:1027D00080460024002211461046FFF789FF2B4651
:1027E000324639462046FFF745FF641C102C00D3C3
:1027F00000244046FFF783FAECE70000114E8046C4
:10280000002440F2FE270025C5EB051000EB451023
:102810002044B0FBF7F107FB110000EB40008119E9
:102820008B784A78315C2846FFF724FF6D1C102D09
:10283000EAD32F34B4FBF7F007FB10444046FFF710
:102840005EFAE0E700000020164600220F468046B0
:102850001D4611461046FFF74BFF00242B4632461B
:1028600039462046FFF706FF4046FFF748FA641C4A
:10287000102CF3D3002400231A4619462046FFF7F4
:10288000F9FE4046FFF73BFA641C102CF3D3E4E753
:102890000F0980461609C7EB071000F0FF0BC6EBC7
:1028A00006101D0900F0FF09C5EB0510002200F01D
:1028B000FF0A11461046FFF71BFF002404FB05F03A
:1028C000C2B204FB06F0C1B204FB07F0C0B2FFF7CE
:1028D0000FFF3221B8FBF1F0FFF711FA641C102C46
:1028E000ECD3002404FB15A0C2B204FB1690C1B2C5
:1028F00004FB17B0C0B2FFF7FBFE2D21B8FBF1F0CF
:10290000FFF7FDF9641C102CECD3002404FB05F048
:10291000C2B204FB06F0C1B204FB07F0C0B2FFF77D
:10292000E7FE2821B8FBF1F0FFF7E9F9641C102C51
:10293000ECD3002404FB15A0C2B204FB1690C1B274
:1029400004FB17B0C0B2FFF7D3FE2321B8FBF1F0B0
:10295000FFF7D5F9641C102CECD34046FFF7CFF9F4
:10296000ABE70E4683461020B0FBF6F700249146F5
:102970009846224621462046DDF800A0FFF7B8FE23
:10298000002211461046FFF7B3FE002507E005FBC5
:102990000740534642464946FFF76CFE6D1CB54260
:1029A000F5D3641C102C00D300245846FFF7A7F978
:1029B000E6E7D0E9013201699A60D0E901235A6063
:1029C0004A68824201D182684A6000220261086836
:1029D000401E0860704700F108014FF0FF32C0E967
:1029E0000112C16001610021016070470021016195
:1029F000704730B50B685A1C02D000F1080202E0A3
:102A0000026904E02246546825689D42FAD9536859
:102A10004B6099608A60516008610168491C0160DF
:102A200030BD42684A6093688B60936859609160DA
:102A300008610168491C016070470000502080F364
:102A40001188BFF34F8FBFF36F8F0A494868401C4E
:102A5000486001280CD10848006810F0FF0F07D02B
:102A6000502080F31188BFF34F8FBFF36F8FFEE7C5
:102A7000704700009C09002004ED00E00849486808
:102A800028B1401E486001D180F311887047502062
:102A900080F31188BFF34F8FBFF36F8FFEE7000005
:102AA0009C09002070B5002827D0144DA0F108041F
:102AB0006168E868014207D1502080F31188BFF3B4
:102AC0004F8FBFF36F8FFEE722683AB1502080F33B
:102AD0001188BFF34F8FBFF36F8FFEE781436160B3
:102AE00000F000FA60686968084468602046FFF7F3
:102AF0005DFBBDE8704000F05BBE70BD8409002046
:102B000006484FF47A710068B0FBF1F14FF0E02015
:102B1000491E416107210161704700003009002012
:102B200010B5FDF79DFB114910280ED300F1E020F0
:102B300090F8F0030A78904207D2502080F3118871
:102B4000BFF34F8FBFF36F8FFEE7094800688968B6
:102B500000F4E060884207D9502080F31188BFF369
:102B60004F8FBFF36F8FFEE710BD00009C09002060
:102B70000CED00E010B5084B002200BF53F83240C6
:102B80001CB1521C082AF9D310BD43F8321003EBD4
:102B9000C201486010BD0000C80C002070B5154689
:102BA0000E460446FFF74AFF94F944100020491CE2
:102BB00001D184F8440094F94510491C01D184F8EE
:102BC0004500FFF75BFFA06B28B92A46314604F1A8
:102BD000240000F049F82046BDE87040FFF786BCAD
:102BE00010B5020014D00F48006B38B1502080F3AC
:102BF0001188BFF34F8FBFF36F8FFEE700F072F9BC
:102C000000211046FFF708F900F0D2FD002807D197
:102C100005494FF080500860BFF34F8FBFF36F8FAF
:102C200010BD00003409002004ED00E0014901203E
:102C3000C86170473409002010B50C4650B10949ED
:102C400009681831FFF7D5FE2046BDE81040012184
:102C5000FFF7E2B8502080F31188BFF34F8FBFF326
:102C60006F8FFEE73409002070B514460D4668B139
:102C70000A4909681831FFF7D4FE0CB14FF0FF354F
:102C800021462846BDE87040FFF7C6B8502080F3C3
:102C90001188BFF34F8FBFF36F8FFEE73409002019
:102CA00070B5040039D01D4DE06A2968C96A8842B0
:102CB00033D2A069002804DB2868C06AC0F107008D
:102CC000A061E16A164E01EB8101606906EB8101AA
:102CD00088421FD1201DFFF76CFE012150B9E06A28
:102CE00000EB800256F8222022B92A6901FA00F08E
:102CF00082432A612868C06AE0622A6981401143E0
:102D0000296100EB800006EB8000211DBDE87040CA
:102D1000FFF787BE2868C06AE06270BD34090020F2
:102D2000080D002070B504002BD01A4D286884428D
:102D30002FD0FFF783FE2046FFF7ACFBE8B1201D44
:102D4000FFF737FEE06A01212A69814011432961BA
:102D5000114900EB800001EB8000211DFFF761FEAF
:102D6000E06A2968C96A884207D30C494FF080504D
:102D70000860BFF34F8FBFF36F8FBDE87040FFF760
:102D80007DBE502080F31188BFF34F8FBFF36F8F4C
:102D9000FEE770BD34090020080D002004ED00E0BE
:102DA00028B107490A6A0260C9684160704750202B
:102DB00080F31188BFF34F8FBFF36F8FFEE70000E2
:102DC000340900201CB517480024CDE900402346F3
:102DD000802215A1164800F0C1FB012803D100F0A4
:102DE000B5FD012809D0401C1AD1502080F311886C
:102DF000BFF34F8FBFF36F8FFEE7502080F3118832
:102E0000BFF34F8FBFF36F8F06484FF0FF312C3861
:102E1000816201214161C460BDE81C4000F0B0B88E
:102E20001CBD00006009002049444C450000000022
:102E3000E920000870B50446FFF700FE264D04B9EE
:102E40002C68201DFFF7B5FD58B9E06A234A00EB56
:102E5000800152F8211021B901218140286988435D
:102E60002861A06A18B104F11800FFF7A2FD1B4801
:102E7000211DDC30FFF7D5FDFFF700FE686928B1A2
:102E8000FFF7DCFDFFF798FAFFF7F8FD28688442AA
:102E900013D1686990B1286B38B1502080F3118844
:102EA000BFF34F8FBFF36F8FFEE70D494FF0805098
:102EB0000860BFF34F8FBFF36F8F70BD0748A968DD
:102EC000DC300068884202D10020286070BDBDE877
:102ED000704000F00FB8000034090020080D0020F9
:102EE00004ED00E00248016B491C016370470000DB
:102EF000340900201448016B11B10121C1617047F0
:102F00000021C1610169B1FA81F1C1F11F0101EB39
:102F100081020E4951F822306BB101EB820101F1BF
:102F200008034A6852684A609A4201D152684A606E
:102F3000D16801607047502080F31188BFF34F8F34
:102F4000BFF36F8FFEE7000034090020080D00205A
:102F5000AFF3008010B5002206490748FEF780F85D
:102F6000BDE8104040F2E513044A00210248FEF794
:102F700031B90000900B0020AC0B0020A809002004
:102F80001CB532480168324A914207D1502080F383
:102F90001188BFF34F8FBFF36F8FFEE700682C4996
:102FA000491E884207D1502080F31188BFF34F8F0C
:102FB000BFF36F8FFEE7274908780190FF20087064
:102FC00008788DF800009DF800009DF8002000F0C2
:102FD000F000904207D0502080F31188BFF34F8F4C
:102FE000BFF36F8FFEE79DF800001B4A00F0500012
:102FF00010700720906005E09DF800305B008DF8B0
:103000000030401E9DF800301B06F5D4000200F48D
:10301000E0609060019808700C482030016841F42D
:1030200070010160016841F070410160FFF768FDC7
:1030300000205060FDF7DAF80848016841F040418F
:103040000160FDF7C3F800201CBD000000ED00E0AA
:1030500071C20F4100E400E09C09002034EF00E061
:1030600010B5502080F31188BFF34F8FBFF36F8FDF
:1030700000F0B4FA18B104494FF080500860002005
:1030800080F3118810BD000004ED00E02DE9F0414F
:1030900017460E46050016D0EEB105FB06F050307F
:1030A000FFF75AFA04000CD004F15000AEB12060D2
:1030B000C4E90F562046012100F0C8F8204684F8E4
:1030C0004C70BDE8F081502080F31188BFF34F8F22
:1030D000BFF36F8FFEE70020E1E72460E8E7000020
:1030E0002DE9FF4F002683B09B468A46040003D09B
:1030F000BAF1000F08D011E0502080F31188BFF31F
:103100004F8FBFF36F8FFEE7206C38B1502080F3F4
:103110001188BFF34F8FBFF36F8FFEE700F04AFABD
:10312000DFF824814FF000094FF0805748B9059827
:1031300038B1502080F31188BFF34F8FBFF36F8FEA
:10314000FEE7FFF77BFCA56B45B351462046E668DA
:10315000FEF752FFBBF1000F13D0E660606A50B17A
:1031600004F1240000F0EAFA28B1C8F80070BFF3B7
:103170004F8FBFF36F8FFFF781FC012007B0BDE8D1
:10318000F08F6D1EA563206810B9FFF751FA6060DB
:1031900020690028EFD004F11000E3E7059808B19A
:1031A0001EB106E0FFF76AFC27E06846FFF7F8FD6E
:1031B0000126FFF763FCFFF795FEFFF73FFC94F94C
:1031C0004400401C01D184F8449094F94500401C0F
:1031D00001D184F84590FFF751FC05A9684600F03D
:1031E00087F9002820460AD0FFF780F900F0E0FABE
:1031F0002046FFF71DF80028A3D00020BEE7FFF708
:1032000017F8D8B1206830B9FFF718FC6068FFF7ED
:1032100047FDFFF733FC04F124000599FFF70CFD8F
:103220002046FFF763F900F0C3FA002889D1C8F8F7
:103230000070BFF34F8FBFF36F8F82E72046FFF719
:1032400055F900F0B5FA7CE704ED00E070B50D46E5
:10325000040025D0FFF7F2FBD4E90F20216802FB20
:10326000001161600021A1632168A1600A46D4E9D0
:103270000F01401E00FB0121E16021464FF0FF30AD
:1032800001F8440F487004F110008DB1FFF7A3FB63
:1032900004F12400FFF79FFBFFF7F0FB012070BD56
:1032A000502080F31188BFF34F8FBFF36F8FFEE77D
:1032B00021690029F0D000F041FA0028ECD004493F
:1032C0004FF080500860BFF34F8FBFF36F8FE3E77D
:1032D00004ED00E02DE9FF4782B01D468A464FF01D
:1032E0000008040003D0BAF1000F08D011E050200C
:1032F00080F31188BFF34F8FBFF36F8FFEE7206C11
:1033000038B1502080F31188BFF34F8FBFF36F8F18
:10331000FEE7022D0AD1E06B012807D0502080F390
:103320001188BFF34F8FBFF36F8FFEE700F042F9B4
:103330003F4F4FF000094FF0805648B9049838B11C
:10334000502080F31188BFF34F8FBFF36F8FFEE7DC
:10335000FFF774FBA06BE16B884207D3022D05D009
:103360000498D0B1B8F1000F1AD01EE02A46514699
:103370002046FEF754FE616A19B104F1240000F002
:10338000DDF920B13E60BFF34F8FBFF36F8FFFF7C2
:1033900075FB012006B0BDE8F087FFF76FFB22E068
:1033A0006846FFF7FDFC4FF00108FFF767FBFFF7EA
:1033B00099FDFFF743FB94F94400401C01D184F8C8
:1033C000449094F94500401C01D184F84590FFF7E2
:1033D00055FB04A9684600F08BF830B12046FFF792
:1033E00085F800F0E5F90020D4E7FFF727FBA06B94
:1033F000E16B884213D1FFF741FB04F110000499FF
:10340000FFF71AFC2046FFF771F800F0D1F9002809
:103410009ED13E60BFF34F8FBFF36F8F98E7FFF7EA
:103420002DFB2046FFF762F800F0C2F990E700009C
:1034300004ED00E02DE9F0471F4690468946040060
:1034400003D0B9F1000F08D011E0502080F31188AB
:10345000BFF34F8FBFF36F8FFEE7206C38B1502062
:1034600080F31188BFF34F8FBFF36F8FFEE7022FFA
:103470000AD1E06B012807D0502080F31188BFF3F8
:103480004F8FBFF36F8FFEE7FFF74AFB5020EFF33C
:10349000118680F31188BFF34F8FBFF36F8FA06B3E
:1034A000E16B884206D3022F04D0002086F31188F6
:1034B000BDE8F08794F945503A4649462046FEF764
:1034C000AEFD681C04D06D1C84F845500120EDE76A
:1034D000606A0028FAD004F1240000F02FF90028D7
:1034E000F4D0B8F1000FF1D00121C8F80010EDE7D9
:1034F00070B50D46040019D005B3FFF79FFA164AC0
:10350000D1682868431C0FD02368126A934202D006
:1035100062688A421AD96268891A814216D2401AB0
:1035200028602046FFF73CFC002410E0502080F388
:103530001188BFF34F8FBFF36F8FFEE7502080F3EA
:103540001188BFF34F8FBFF36F8FFEE70124FFF7A2
:1035500095FA204670BD0000340900202DE9FF5F78
:103560008346DDE90E87994616468A469000FEF7A7
:10357000F3FF05001AD05C20FEF7EEFF040012D026
:1035800025630021CDE90241CDE900874B46324653
:1035900051465846FEF7BCFD2046FEF775FC01205B
:1035A00004B0BDE8F09F2846FFF77CFA4FF0FF30EB
:1035B000F6E700000548416919B1006B18B1002019
:1035C0007047012070470220704700003409002036
:1035D0000148C06870470000340900202DE9F0411F
:1035E0002E4C0027206B40B1A069401CA061E0690F
:1035F00000B101273846BDE8F081E668761CE66038
:1036000013D1606B006838B1502080F31188BFF38C
:103610004F8FBFF36F8FFEE7606BA16B6163A06399
:10362000206A401C2062FEF7C7FEA06ADFF87080A7
:10363000864209D3606B006880B1606BC068C56862
:10364000686886420DD2A0622068C06A00EB8001E3
:1036500058F821000128CAD90127C8E74FF0FF30E8
:10366000F1E7281DFFF7A5F9A86A18B105F11800C0
:10367000FFF79FF9E86A0121226981401143216126
:1036800000EB800108EB8100291DFFF7CAF9E86A09
:103690002168C96A8842CDD30127CBE734090020CD
:1036A000080D002070B504004FF0000140D0214DFE
:1036B0002868844207D0502080F31188BFF34F8FD1
:1036C000BFF36F8FFEE7206D38B1401E2065E36CBD
:1036D000E26A9A422CD040B12AE0502080F311884F
:1036E000BFF34F8FBFF36F8FFEE7201DFFF761F928
:1036F000114A012150B9E06A00EB800352F82330EF
:1037000023B92B6901FA00F083432B61E06CE0627E
:10371000C0F10700A061E06A2B698140194329616B
:1037200000EB800002EB8000211DFFF77AF90121F8
:10373000084670BD34090020080D00202DE9F04135
:10374000C068C468ACB104F118000746FFF731F94E
:10375000154D286B0126A0B139461448FFF761F9D1
:10376000E06A2968C96A88421CD90120EE61BDE877
:10377000F081502080F31188BFF34F8FBFF36F8F1C
:10378000FEE7201DFFF715F9E16A2A6906FA01F044
:103790001043286101EB81000449B43901EB80003A
:1037A000211DDBE70020E2E734090020BC0D0020EA
:1037B0002DE9F0472C4D00242746286B38B1FFF740
:1037C0003DF9286B401E2863286B40B146E050202D
:1037D00080F31188BFF34F8FBFF36F8FFEE7A968A7
:1037E000224E0120D1B3A6F1B40980463068E8B179
:1037F000F068C46804F11800FFF7DBF8201DFFF73C
:10380000D8F8E06A2A6908FA00F11143296100EB4F
:10381000800109EB8100211DFFF703F9E06A2968A7
:10382000C96A8842E2D3C5F81C80DFE70CB1FEF715
:10383000C3FDAC6944B14646FFF7D0FE00B1EE616E
:10384000641EF9D10020A861E86938B10849012750
:1038500038070860BFF34F8FBFF36F8FFFF70EF984
:103860003846BDE8F087000034090020BC0D002078
:1038700004ED00E02DE9F0410027040015D0FFF72A
:103880004FF95020EFF3118580F31188BFF34F8F6C
:10389000BFF36F8F2046FEF7FDFD30B3154E306B42
:1038A00058B104F1180114481DE0502080F311882C
:1038B000BFF34F8FBFF36F8FFEE7E06A3168C96ACD
:1038C000884200D30127201DFFF773F8E16A012029
:1038D000326988401043306101EB81000649B439F8
:1038E00001EB8000211DFFF79CF885F31188384615
:1038F000BDE8F08134090020BC0D00202DE9F0471F
:103900000746994616460D462C20DDF820A0FEF706
:1039100023FE04000ED0B8464F46D1466DB1FEF7E7
:103920001BFB04F11801C4F8008081E8E002201DAF
:10393000FFF75CF82046BDE8F087502080F311883F
:10394000BFF34F8FBFF36F8FFEE700001CB5FEF78C
:1039500003FB0C48006860B10A490220091DCDE94B
:103960000001C201002308A10948FFF7F7FD002864
:1039700007D1502080F31188BFF34F8FBFF36F8FB3
:10398000FEE71CBD70090020546D72205376630061
:10399000C9240008FEB51E4613460200089D4FF0DC
:1039A000000014D0124C2768002F0FD0CDE900136F
:1039B0000292062915DAFFF7FDFD02284FF00003F9
:1039C0000DD0002269462068FFF784FCFEBD502020
:1039D00080F31188BFF34F8FBFF36F8FFEE72A4646
:1039E000F0E70023324669463846FFF723FDFEBD67
:1039F00070090020512F0008F43A0008CD16000885
:103A0000FEFF00000000000080000000CC3A00082B
:103A1000E115000802000000000000008000000026
:103A2000E43A00081D040008000000000000000047
:103A300080000000283B0008B313000800000000CD
:103A400000000000800000001C3B0008F703000895
:103A5000000000000000000080000000003B0008A3
:103A600029040008000000000000000080000000A1
:103A7000D83A0008B9160008000000000000000055
:103A800080000000343B0008E5040008000000004E
:103A900000000000800000000C3B0008FD0300084F
:103AA000000000000000000080000000000610166A
:103AB00000061016000000000000000001020304D0
:103AC0000607080900000000010203044D41494EA9
:103AD0005F5441534B0000005061747465726E4D29
:103AE0006F76650043697263756C617252696E67C7
:103AF0000000000064656661756C745461736B004E
:103B0000436F6C6F72576865656C0000416C74653B
:103B1000726E617465436F6C6F727300416C6C43BD
:103B20006F6C6F727300000048656172744265616A
:103B30007400000046756C6C456D7074790000006F
:103B4000603B000800000020A8090000980300085E
:103B50008C410008A8090020A8260000AE1C00081F
:103B600000FF00FF0000FE0100FD0200FC0300FB5F
:103B70000400FA0500F90600F80700F70800F60946
:103B800000F50A00F40B00F30C00F20D00F10E003A
:103B9000F00F00EF1000EE1100ED1200EC1300EB3F
:103BA0001400EA1500E91600E81700E71800E61906
:103BB00000E51A00E41B00E31C00E21D00E11E000A
:103BC000E01F00DF2000DE2100DD2200DC2300DB1F
:103BD0002400DA2500D92600D82700D72800D629C6
:103BE00000D52A00D42B00D32C00D22D00D12E00DA
:103BF000D02F00CF3000CE3100CD3200CC3300CBFF
:103C00003400CA3500C93600C83700C73800C63985
:103C100000C53A00C43B00C33C00C23D00C13E00A9
:103C2000C03F00BF4000BE4100BD4200BC4300BBDE
:103C30004400BA4500B94600B84700B74800B64945
:103C400000B54A00B44B00B34C00B24D00B14E0079
:103C5000B04F00AF5000AE5100AD5200AC5300ABBE
:103C60005400FF0000AA5500A95600A85700A75805
:103C700000A65900A55A00A45B00A35C00A25D0049
:103C8000A15E00A05F009F60009E61009D62009C9D
:103C900063009B64009A65009966009867009768C6
:103CA00000966900956A00946B00936C00926D0019
:103CB000916E00906F008F70008E71008D72008C7D
:103CC00073008B74008A7500897600887700877886
:103CD00000867900857A00847B00837C00827D00E9
:103CE000817E00807F007F80007E81007D82007C5D
:103CF00083007B84007A8500798600788700778846
:103D000000768900758A00748B00738C00728D00B8
:103D1000718E00708F006F90006E91006D92006C3C
:103D200093006B94006A9500699600689700679805
:103D300000669900659A00649B00639C00629D0088
:103D4000619E00609F005FA0005EA1005DA2005C1C
:103D5000A3005BA4005AA50059A60058A70057A8C5
:103D6000005600FF00A90055AA0054AB0053AC0058
:103D700052AD0051AE0050AF004FB0004EB1004DFB
:103D8000B2004CB3004BB4004AB50049B60048B786
:103D90000047B80046B90045BA0044BB0043BC0028
:103DA00042BD0041BE0040BF003FC0003EC1003DDB
:103DB000C2003CC3003BC4003AC50039C60038C746
:103DC0000037C80036C90035CA0034CB0033CC00F8
:103DD00032CD0031CE0030CF002FD0002ED1002DBB
:103DE000D2002CD3002BD4002AD50029D60028D706
:103DF0000027D80026D90025DA0024DB0023DC00C8
:103E000022DD0021DE0020DF001FE0001EE1001D9A
:103E1000E2001CE3001BE4001AE50019E60018E7C5
:103E20000017E80016E90015EA0014EB0013EC0097
:103E300012ED0011EE0010EF000FF0000EF1000D7A
:103E4000F2000CF3000BF4000AF50009F60008F785
:103E50000007F80006F90005FA0004FB0003FC0067
:103E600002FD000805FF01FE0000FE09FFFE09FB40
:103E7000FE00FF000100FE0200FD0300FC0400FB49
:103E80000500FA0600F90700F80800F70900F60A2D
:103E900000F50B00F40C00F30D00F20E00F10F0022
:103EA000F01000EF1100EE1200ED1300EC1400EB27
:103EB0001500EA1600E91700E81800E71900E61AED
:103EC00000E51B00E41C00E31D00E21E00E11F00F2
:103ED000E02000DF2100DE2200DD2300DC2400DB07
:103EE0002500DA2600D92700D82800D72900D62AAD
:103EF00000D52B00D42C00D32D00D22E00D12F00C2
:103F0000D03000CF3100CE3200CD3300CC3400CBE6
:103F10003500CA3600C93700C83800C73900C63A6C
:103F200000C53B00C43C00C33D00C23E00C13F0091
:103F3000C04000BF4100BE4200BD4300BC4400BBC6
:103F40004500BA4600B94700B84800B74900B64A2C
:103F500000B54B00B44C00B34D00B24E00B14F0061
:103F6000B05000AF5100AE5200AD5300AC5400ABA6
:103F7000550000FF00AA5600A95700A85800A759ED
:103F800000A65A00A55B00A45C00A35D00A25E0031
:103F9000A15F00A060009F61009E62009D63009C85
:103FA00064009B65009A66009967009868009769AD
:103FB00000966A00956B00946C00936D00926E0001
:103FC000916F009070008F71008E72008D73008C65
:103FD00074008B75008A760089770088780087796D
:103FE00000867A00857B00847C00837D00827E00D1
:103FF000817F008080007F81007E82007D83007C45
:1040000084007B85007A860079870078880077892C
:1040100000768A00758B00748C00738D00728E00A0
:10402000718F007090006F91006E92006D93006C24
:1040300094006B95006A96006997006898006799EC
:1040400000669A00659B00649C00639D00629E0070
:10405000619F0060A0005FA1005EA2005DA3005C04
:10406000A4005BA5005AA60059A70058A80057A9AC
:104070000056AA1CFF0055AB0054AC0053AD0052D3
:10408000AE0051AF0050B0004FB1004EB2004DB382
:10409000004CB4004BB5004AB60049B70048B80020
:1040A00047B90046BA0045BB0044BC0043BD0042CE
:1040B000BE0041BF0040C0003FC1003EC2003DC342
:1040C000003CC4003BC5003AC60039C70038C800F0
:1040D00037C90036CA0035CB0034CC0033CD0032AE
:1040E000CE0031CF0030D0002FD1002ED2002DD302
:1040F000002CD4002BD5002AD60029D70028D800C0
:1041000027D90026DA0025DB0024DC0023DD00228D
:10411000DE0021DF0020E0001FE1001EE2001DE3C1
:10412000001CE4001BE5001AE60019E70018E8008F
:1041300017E90016EA0015EB0014EC0013ED00126D
:10414000EE0011EF0010F0000FF1000EF2000DF381
:10415000000CF4000BF5000AF60009F70008F8005F
:1041600007F90006FA0005FB0004FC0003FD00024D
:10417000FE0001F90501280112010462100D00047E
:0C4180006A24F4000112AA012171000061
:040000050800019955
:00000001FF
